:100000000C944A010C9472010C9472010C947201CC
:100010000C9472010C9472010C9472010C94720194
:100020000C9472010C9472010C9472010C94720184
:100030000C9472010C9472010C9472010C94720174
:100040000C94860E0C9472010C9472010C94720143
:100050000C9472010C9472010C9472010C94720154
:100060000C9472010C9472012305260529053905AB
:100070002C052F0532053505000000000000330077
:1000800000006600000099000000CC000000FF00A6
:100090000033FF000066FF000099FF0000CCFF0066
:1000A00000FFFF0033FFFF0066FFFF0099FFFF0026
:1000B000CCFFFF00FFFFFF00AB0055007C00840079
:1000C0004B00B5001B00E5000017E8000047B80032
:1000D0000077AB0000ABAB000055AB000022DD00A9
:1000E0000E00F2003E00C20071008F00A1005F0010
:1000F000D0002F00F9070000006400000064000039
:100100002F6B55000064000000800000228B22004D
:10011000238E6B0000800000578B2E00AACD660056
:1001200032CD320032CD9A0090EE900000FC7C007F
:10013000AACD6600228B2200701919008B000000E6
:1001400070191900800000008B000000CD00000035
:10015000578B2E0080800000A09E5F00FF000000F3
:100160008B8B0000ED956400D4FF7F00578B2E0031
:10017000FFFF0000FACE87000000000000008000B2
:10018000000000000000800000008B0000008000E4
:1001900000008B0000008B0000008B000000FF00BF
:1001A00000A5FF00FFFFFF0000A5FF000000FF000B
:1001B00000008B0000000000FF0000008B0000002A
:1001C0008B0000008B0000008B0000008B00000003
:1001D0008B0000008B000000FF0000008B0000007F
:1001E000EBCE8700EBCE8700E6D8AD00FFFFFF0027
:1001F000E6D8AD00EBCE870000000000230026000B
:1002000029000000000800020100000304070000AC
:1002100000000000000000000000250028002B0066
:1002200000000000240027002A0004040404040441
:100230000404020202020202030303030303010295
:100240000408102040800102040810200102040864
:1002500010200000FF00002AD5000055AB00007FF1
:10026000AB0000ABAB0000D5560000FF00002AD564
:10027000000055AB0000AA560000FF000000D500AA
:100280002A00AB00550081007F005500AB002B0019
:10029000D500FC0F11241FBECFEFD8E0DEBFCDBFCD
:1002A00011E0A0E0B1E0EAEDFBE202C005900D92A2
:1002B000A437B107D9F722E0A4E7B1E001C01D924D
:1002C000AE34B207E1F711E0CAE4D1E004C02197EF
:1002D000FE010E94A313C934D107C9F70E9411106F
:1002E0000C94EB150C940000CF93DF9380918F0159
:1002F000811109C081E080938F0182E390E09093A7
:100300008E0180938D01E5E9F1E080E09FEFDF0150
:100310001297EF012197883020F41C921882908365
:1003200003C09C93188210828F5F3396803179F7D7
:10033000DF91CF91089580918F01811111C081E0EB
:1003400080938F011092790110927A0110927B01B3
:1003500010927C0180E290E090938E0180938D0159
:100360004091790150917A0160917B0170917C01FB
:10037000DB01CA010197A109B1098093750190932E
:100380007601A0937701B0937801FA0131969F012D
:10039000220F331FE20FF31FE057FE4F2FEF208392
:1003A000218322830196FC01EE0FFF1F8E0F9F1FFA
:1003B000FC01E057FE4F1082118212824F5F5F4FA7
:1003C0006F4F7F4F413151056105710548F44093EE
:1003D000790150937A0160937B0170937C010895B9
:1003E0001092790110927A0110927B0110927C0197
:1003F000089580E090E00895FC0185859685089534
:10040000CF93DF9300D000D000D0CDB7DEB7AB01E3
:100410001C821D821E82DC01ED91FC910190F08115
:10042000E02D19821A821B829E012F5F3F4FBE0171
:100430006C5F7F4F099526960FB6F894DEBF0FBE0E
:10044000CDBFDF91CF91089587FD8095880F282F2C
:1004500027FD2095229F020E20E0211D000C221F67
:1004600027FD20951124822F0895482F982F46FDAF
:100470009095E92FEF739F7046FD9F5FE695E69597
:10048000E695E670F0E0ED5DFE4F2181299F802D1D
:10049000212D112482958F702295207F822B30810F
:1004A000982F930F892F47FD819580580895BF920B
:1004B000CF92DF92EF92FF920F931F93CF93DF9330
:1004C0001F92CDB7DEB780918F01811109C081E005
:1004D00080938F0184E190E090938E0180938D0151
:1004E000E12CF12C90E089E0D82EC0907D01192FED
:1004F000CD9C100D1124812F99830E943502812FEC
:100500000E943502082F22E0029F112011F00FEF08
:1005100001C0002D1124B12EBC0C8B2D0E94350280
:100520008B2D0E943502182F32E0139F112011F0FD
:100530001FEF01C0102D1124BC0C8B2D0E94350221
:100540008B2D0E943502282F32E0239F112011F0BD
:100550002FEF01C0202D1124F701E057FE4F009529
:10056000038310951483209525839981905F83E000
:10057000E80EF11C20E3E216F10409F0B6CFC394B3
:10058000C0927D010F90DF91CF911F910F91FF904D
:10059000EF90DF90CF90BF900895BC019C013F7316
:1005A00036952795369527953695279576FF06C07B
:1005B0008FEF97E0AC01421B530B9A01E32FEE0F34
:1005C000EE0FF0E0EC5FFE4F408151818281269575
:1005D000FA01829FE00DF11D1124CF0177FF03C0C6
:1005E00091958195910908954091010150910201E1
:1005F00025E038E0429FD001439FB00D529FB00DDF
:100600001124A75EB94CB0930201A09301019C0193
:100610000E94A9130895409101015091020125E023
:1006200038E0429FC001439F900D529F900D1124CE
:10063000875E994C9093020180930101890F089580
:100640009C01869FC001379FD001E0E0369F900D4E
:10065000A11DBE1F279F900DA11DBE1F1124BC010F
:10066000CD01620F731F8E1F9E1F0895DF92EF92C0
:10067000FF920F931F93CF93DF9300D01F92CDB7BC
:10068000DEB780918F01811109C081E080938F01D5
:1006900085E090E090938E0180938D01E12CF12C08
:1006A00000E0DD24DA9410918601802F810F0E94F2
:1006B000240290918C019983DA828B8383E0E80E87
:1006C000F11CB70160577E4FCE0101960E94D00EFB
:1006D000005E80E3E816F10431F7145010938601B0
:1006E0000F900F900F90DF91CF911F910F91FF907E
:1006F000EF90DF9008951F93CF93DF9300D01F9268
:10070000CDB7DEB780918F01811109C081E0809360
:100710008F018EE190E090938E0180938D01A2EC89
:10072000B1E01EE0E12FF0E03196CF01880F991F74
:10073000E80FF91FAF0140575E4FFA012081CD014C
:100740000297FC012083FA0121810196FC0120839C
:10075000FA0182818C93115013971F3F19F70E9461
:100760000B031092930110929401109295018091C5
:100770008C0189831A831B8363E971E0CE010196A2
:100780000E94D00E0F900F900F90DF91CF911F918C
:100790000895EF92FF920F931F93CF93DF9300D0B2
:1007A0001F92CDB7DEB780918F01811109C081E022
:1007B00080938F018FE090E090938E0180938D0164
:1007C00000E010E0EE24EA948FE3F82E0E940B0381
:1007D00025E0829FC001112480918C018983EA82E7
:1007E000F99E802D11248B830D5F1F4FB801605738
:1007F0007E4FCE0101960E94D00E0033110531F7D5
:100800000F900F900F90DF91CF911F910F91FF905C
:10081000EF9008959F92AF92BF92CF92DF92EF92A6
:10082000FF920F931F93CF93DF9300D000D000D09F
:10083000CDB7DEB780918F0181110BC081E080932D
:100840008F0185E090E090938E0180938D0110924E
:10085000820175E9C72E71E0D72E00E010E0E6E0D6
:10086000AE2EEE24EA94F12C99249A942227332771
:10087000201B310BB09082018B2DB7FC8095880F27
:1008800090E0281B390BA901440F551F42385F4FD8
:1008900044F0A29EC001A39E900D112483589E4F48
:1008A0000AC09C01200F311FA29EC001A39E900D83
:1008B00011248D5791408F3F910519F014F08FEF5F
:1008C00090E020918C012C839D82F701E81BF90BAD
:1008D000EE83BE016F5F7F4FCE0104960E94D00E63
:1008E000F60132978981808331968A8180838B815A
:1008F000F6018083F3E0CF0ED11C085011090038B7
:100900002FEF120709F0B2CFB394B092820126966E
:100910000FB6F894DEBF0FBECDBFDF91CF911F9110
:100920000F91FF90EF90DF90CF90BF90AF909F908E
:100930000895EF92FF921F93CF93DF9300D01F9201
:10094000CDB7DEB780918F01811109C081E080931E
:100950008F0185E090E090938E0180938D01E12CD2
:10096000F12C10917401812F0E94240290918C012E
:1009700099831A828B8383E0E80EF11CB7016057DC
:100980007E4FCE0101960E94D00E80E3E816F1045E
:1009900041F71450109374010F900F900F90DF9156
:1009A000CF911F91FF90EF9008950F931F93CF93D6
:1009B000DF9300D01F92CDB7DEB780918C01898381
:1009C0008FEF8B8380EF8A8300E010E00D5F1F4F75
:1009D000B80160577E4FCE0101960E94D00E8981EA
:1009E000895F89830033110589F70F900F900F906D
:1009F000DF91CF911F910F910895FF920F931F9355
:100A0000CF93DF9300D01F92CDB7DEB780918F01D7
:100A100081112FC081E080938F018AE090E0909354
:100A20008E0180938D010E940B0328E0829FC001FC
:100A30001124892F90E088309105D8F4FC01EC5CFA
:100A4000FF4F0C94A31388EB91E011C088E791E06D
:100A50000EC088E391E00BC088EF90E008C082E50B
:100A600092E005C088EB90E002C088E790E00E9429
:100A7000ED0C34E0F32E8FEF90E00E94F4022FEFA4
:100A8000482F63EC71E0CE0101960E948E0C81E04C
:100A900090E00E94F4028C0180E190E00E94F40258
:100AA000F801FF2794E0EE0FFF1F9A95E1F7E80F9A
:100AB000F11D3196CF01880F991FE80FF91FE057FC
:100AC000FE4F898180838A8181838B81828380919B
:100AD000010190910201019690930201809301011E
:100AE000FA94F110C8CF0F900F900F90DF91CF9133
:100AF0001F910F91FF900895CF9380918F018111E5
:100B000013C081E080938F018DE290E090938E017D
:100B100080938D01109285011092840110928301BF
:100B200082E592E00E94ED0CC091830180918401E6
:100B3000E09185019C2F9170C0FD2FC02DE230E027
:100B400030938E0120938D01282F2195C23009F01A
:100B5000282FF0E0AF01440F551FE40FF51FED53B0
:100B6000FE4FA0817181628140E1249F9001112498
:100B7000A901440F551F240F351F40E050E0FA0132
:100B8000E20FF31FE057FE4FA383748365834D5F2D
:100B90005F4F4033510599F725C024E130E0309391
:100BA0008E0120938D01A82FC33011F4AFE0A81B54
:100BB000F0E0B0E011969D01220F331FA20FB31F8A
:100BC000A057BE4F9F01220F331FE20FF31FED53BB
:100BD000FE4F20812C93218111962C931197228115
:100BE00012962C938F5F911104C029F48093840195
:100BF00024C08031D8F3109284010E940B0323E0BB
:100C0000829FC00111242091850183E0890F90E02B
:100C1000820F911D803108F0805180938501CF5F54
:100C2000C43018F4C093830102C0109283018CE297
:100C300091E090938E0180938D01CF9108952F9232
:100C40003F924F925F926F927F928F929F92AF925C
:100C5000BF92CF92DF92EF92FF920F931F93CF93A9
:100C6000DF93CDB7DEB727970FB6F894DEBF0FBE80
:100C7000CDBF80918F01811109C081E080938F01E8
:100C80008AE090E090938E0180938D010091800125
:100C900010918101780117FF03C08FEFE80EF11C5E
:100CA00080E48F0D0E943502A82EB12C8F2D0E945A
:100CB0003502682F70E080E090E00E947C1420E014
:100CC00030E040EA51E40E94DE1320E030E04EEFD5
:100CD00052E40E94DE139B01AC010E9408152B0117
:100CE0003C0183E9C82E81E0D82EE12CF12CC5010E
:100CF000BB0CAA0BBB0B8C839D83AE83BF833324B9
:100D00003A94B7010F2C000C880B990B0E947C14AD
:100D100020E030E040EF50E40E94DE1320E030E0BD
:100D200040E251E40E9408154B015C016C817D8119
:100D30008E819F810E947C149B01AC01C501B4018E
:100D40000E94DF1320E030E04EEF52E40E94DE13F9
:100D50009B01AC010E940815A30192010E94DF13C0
:100D60000E947B154B015C0120907F01622D70E099
:100D700080E090E00E947C149B01AC01C501B401AD
:100D80000E94DF130E944B14862F0E943502898334
:100D90003A823B82B601CE0101960E94D00E9FEFAF
:100DA000E91AF90AA3E0CA0ED11CB0E1EB16F1046E
:100DB00009F0A7CF239420927F01005F1F4F10936B
:100DC00081010093800127960FB6F894DEBF0FBE15
:100DD000CDBFDF91CF911F910F91FF90EF90DF90EA
:100DE000CF90BF90AF909F908F907F906F905F90CB
:100DF0004F903F902F900895CF92DF92EF92FF9205
:100E00000F931F93CF93DF9380918F01811109C0BE
:100E100081E080938F0184E190E090938E01809334
:100E20008D01E12CF12CD12C89E0C82ED0917E01CE
:100E3000CD2DDC9DC00D11248C2F0E9435028C2FEE
:100E40000E943502082F22E0029F112011F00FEFBF
:100E500001C0002D1124CD0F8C2F0E9435028C2F44
:100E60000E943502182F32E0139F112011F01FEF5E
:100E700001C0102D1124CD0F8C2F0E9435028C2F14
:100E80000E943502282F32E0239F112011F02FEF0E
:100E900001C0202D1124F701E057FE4F0095038378
:100EA00010951483209525830E940B038A3010F43B
:100EB0000E94760F20E1D20E33E0E30EF11C80E3B6
:100EC000E816F10409F0B2CFDF5FD0937E01DF9125
:100ED000CF911F910F91FF90EF90DF90CF900895E9
:100EE0000E94D5040E940B03803510F40C94760FF9
:100EF0000895DF92EF92FF920F931F93CF93DF93AA
:100F000000D000D000D0CDB7DEB78BEE0E946F0CC2
:100F100007E010E0F12C38ECE32EDD24DA94F982BE
:100F2000EA82DB82BE016C5F7F4FCE0101960E9498
:100F3000D00E0E947A0E9B01AC01A8E1B1E00E94A4
:100F4000BF139B01AC01B02FA0E00E94BF130E9411
:100F5000CD026FE070E090580E9420030196FC01E2
:100F6000EE0FFF1F8E0F9F1FFC01E057FE4F8C817D
:100F70009081981708F480838D819181981708F4E7
:100F800081838E819281981708F4828380E2F80E23
:100F90000F5F1F4F0F30110511F626960FB6F8940C
:100FA000DEBF0FBECDBFDF91CF911F910F91FF909C
:100FB000EF90DF9008950F931F93CF93DF931F92CD
:100FC000CDB7DEB7082F10E0C80169830E94D515A0
:100FD0006981861741F0C8010F90DF91CF911F9171
:100FE0000F910C94DD150F90DF91CF911F910F9110
:100FF0000895FC0140813181228180E090E0FC0174
:10100000E057FE4F43833483258303968033910555
:10101000B1F70895DB01029620E030E0FD01E20F18
:10102000F31F4591559165917491FC01329760834E
:1010300031965083FC0140832C5F3F4F0396203450
:10104000310561F70895EF92FF920F931F93CF93AD
:10105000DF93CDB7DEB7E4970FB6F894DEBF0FBECF
:10106000CDBF68EB70E0CE0101960E940A080E9495
:101070007A0E9B01AC0160E070ED83E490E00E9489
:101080003E13892F0E9435022FEB382F329F030E1B
:1010900030E0311D112490E4F92EF30E05E911E042
:1010A000E12C30E040918C012F2D241B230F4E0D9D
:1010B000BE016F5F7F4FCE01C1963CAB0E948E0C8C
:1010C000F801329789A9808331968AA980838BA9F8
:1010D000F80180833CA9365FE394E3940D5F1F4FD2
:1010E000303A01F7E4960FB6F894DEBF0FBECDBFDD
:1010F000DF91CF911F910F91FF90EF900895FC0128
:10110000DB013C912081230F08F42FEF20831196FF
:101110003C9111972181230F08F42FEF2183129620
:101120003C912281230F08F42FEF228308950F931F
:101130001F93CF93DF9300D000D000D0CDB7DEB7A0
:101140008BEE0E946F0C0E947A0E9B01AC0160E056
:1011500070EA81E490E00E943E130E94CD026FE0AD
:1011600070E090580E9420038C0180918C0189834B
:101170008FEF8A8380EC8B83BE016C5F7F4FCE0143
:1011800001960E94D00EC80101969C01220F331FC8
:10119000820F931FBE016C5F7F4F80579E4F0E944E
:1011A0007F0826960FB6F894DEBF0FBECDBFDF9145
:1011B000CF911F910F910895FF920F931F93CF939B
:1011C000DF9300D000D000D0CDB7DEB785EF0E940E
:1011D0006F0C80E190E00E94F4028C01F0908C0191
:1011E0000E940B0320E4829FC0011124F90EF982B2
:1011F00088EC8A838FEF8B83BE016C5F7F4FCE01BB
:1012000001960E94D00EC80101969C01220F331F47
:10121000820F931FBE016C5F7F4F80579E4F0E94CD
:101220007F0826960FB6F894DEBF0FBECDBFDF91C4
:10123000CF911F910F91FF90089580E991E008955B
:10124000559A08954F925F926F927F928F92AF92CC
:10125000BF92CF92EF92FF920F931F93CF93DF93A2
:101260003C01EB010E94030DF30127853089621BCD
:10127000730B6A307105B0F3F894E881F9815BB1C2
:1012800050628BB18F7D8BB96A859F81262F291B78
:10129000922F2F83BF844A805B807D85FC84EE84FF
:1012A0007F5FF394E3943E814885A984CB841181C8
:1012B000D20120E0C32F022F322F318111278894D1
:1012C0003111390F08F43FEF9195889470FD130F99
:1012D0001795889471FD130F1795889472FD130F5D
:1012E0001795889473FD130F1795889474FD130F49
:1012F0001795889475FD130F1795889476FD130F35
:101300001795889477FD130F17958894232F7111E3
:10131000212F960F122F002C5BB900C000C017FFC1
:101320008BB930812227889400C0002C8BB93111F1
:101330003C0F00C0002C5BB900C000C016FF8BB989
:1013400008F43FEFC195889400C0002C8BB9F0FCE5
:10135000230F00C0002C5BB900C000C015FF8BB983
:1013600027958894F1FC230F00C0002C8BB927959A
:10137000889400C0002C5BB900C000C014FF8BB97A
:10138000F2FC230F2795889400C0002C8BB9F3FC46
:10139000230F00C0002C5BB900C000C013FF8BB945
:1013A00027958894F4FC230F00C0002C8BB9279557
:1013B000889400C0002C5BB900C000C012FF8BB93C
:1013C000F5FC230F2795889400C0002C8BB9F6FC00
:1013D000230F00C0002C5BB900C000C011FF8BB907
:1013E00027958894F7FC230F00C0002C8BB9279514
:1013F000889400C0002C5BB900C000C010FF8BB9FE
:10140000132FF110122FCA0D00C0002C8BB900C091
:1014100000C0002C5BB900C000C017FF8BB932813F
:101420002227889400C0002C8BB93111340F00C0E2
:10143000002C5BB900C000C016FF8BB908F43FEF69
:10144000EB0DF11D00C0002C8BB9E0FC230F00C098
:10145000002C5BB900C000C015FF8BB9279588949C
:10146000E1FC230F00C0002C8BB92795889400C0A5
:10147000002C5BB900C000C014FF8BB9E2FC230F45
:101480002795889400C0002C8BB9E3FC230F00C083
:10149000002C5BB900C000C013FF8BB9279588945E
:1014A000E4FC230F00C0002C8BB92795889400C062
:1014B000002C5BB900C000C012FF8BB9E5FC230F04
:1014C0002795889400C0002C8BB9E6FC230F00C040
:1014D000002C5BB900C000C011FF8BB92795889420
:1014E000E7FC230F00C0002C8BB92795889400C01F
:1014F000002C5BB900C000C010FF8BB9132FE110A6
:10150000122F419500C0002C8BB94C0D00C000C0BB
:101510005BB900C000C017FF8BB9318122278894C6
:1015200000C0002C8BB93111390F00C0002C5BB901
:1015300000C000C016FF8BB908F43FEF9195889466
:1015400000C0002C8BB970FD230F00C0002C5BB9CC
:1015500000C000C015FF8BB92795889471FD230F3B
:1015600000C0002C8BB92795889400C0002C5BB973
:1015700000C000C014FF8BB972FD230F279588941B
:1015800000C0002C8BB973FD230F00C0002C5BB989
:1015900000C000C013FF8BB92795889474FD230FFA
:1015A00000C0002C8BB92795889400C0002C5BB933
:1015B00000C000C012FF8BB975FD230F27958894DA
:1015C00000C0002C8BB976FD230F00C0002C5BB946
:1015D00000C000C011FF8BB92795889477FD230FB9
:1015E00000C0002C8BB92795889400C0002C5BB9F3
:1015F00000C000C010FF8BB9132F7111122F960F6E
:1016000000C0002C8BB9119709F086CE20EE31E096
:10161000D2010E94B813DC01CB01F4E0B695A79586
:1016200097958795FA95D1F720E030E0A9016AE90E
:10163000469E040C411D569E400D511D1124450D22
:10164000511D840F951FA11DB11D893E43E09407D4
:10165000A105B10508F434C0885E9340A109B10921
:1016600042E0B695A795979587954A95D1F747E0BB
:10167000849F080E211D949F200D311D1124290FD8
:10168000311D6091870170E0860F971F820F931FB5
:10169000409148025091490260914A0270914B0278
:1016A000292F3327420F531F611D711D409348029C
:1016B0005093490260934A0270934B0280938701D2
:1016C00078940E94030DF301708B6787DF91CF91AF
:1016D0001F910F91FF90EF90CF90BF90AF908F90A0
:1016E0007F906F905F904F9008950F931F93CF93CB
:1016F000DF93CDB7DEB762970FB6F894DEBF0FBEAB
:10170000CDBF8C01F901DC011C968C917A83698331
:101710005C834B835E834D8390819D8791819E87FF
:1017200092819F87813029F4CE0101960E94AF0FEC
:1017300006C01C861B861A86198618861F82188A80
:101740001A8A198AD801ED91FC910484F585E02D5F
:10175000BE016F5F7F4FC801099562960FB6F8947E
:10176000DEBF0FBECDBFDF91CF911F910F910895C6
:101770000F931F93CF93DF93CDB7DEB762970FB66A
:10178000F894DEBF0FBECDBF8C01F901DC011C96C1
:101790008C917A8369835C834B835E834D839081D4
:1017A0009D8791819E8792819F87813029F4CE0108
:1017B00001960E94AF0F06C01C861B861A861986EA
:1017C00018861F8283E0888B1A8A198AD801ED91C6
:1017D000FC910484F585E02DBE016F5F7F4FC80149
:1017E000099562960FB6F894DEBF0FBECDBFDF91AC
:1017F000CF911F910F910895CF93DF9390E0FC015B
:10180000E25CFD4F2491FC01E65DFD4F849188234D
:10181000C1F090E0880F991FFC01E05EFD4FC5917B
:10182000D491FC01EA5EFD4FA591B4919FB7F89465
:101830003881822F809583238883EC91E22BEC936F
:101840009FBFDF91CF91089590E0FC01EE5FFD4FC7
:101850002491FC01E25CFD4F3491FC01E65DFD4FFB
:10186000E491EE23B9F1222339F1233091F038F4D9
:101870002130A9F0223001F584B58F7D12C02730C8
:1018800091F02830A1F02430B9F4809180008F7D50
:1018900003C0809180008F77809380000DC084B555
:1018A0008F7784BD09C08091B0008F7703C080918D
:1018B000B0008F7D8093B000F0E0EE0FFF1FE85086
:1018C000FE4FA591B491EC913E2381E090E021F48C
:1018D00080E0089580E090E008950E94D015382FB0
:1018E000E5E9F1E0DF0112972C91239F020E20E041
:1018F000211D2C93DF012E91239F020E20E0211D3C
:101900002C932081239F020E20E0211D208311248F
:10191000339681E0E53CF80729F708951F93142FCB
:1019200012951F704F70FB01312F330F310FDB0108
:10193000A30FB11D6C9111965C91119712963C9179
:101940001297442309F427C01F3011F0FD0133968C
:101950004295407F142F10957081619F060E60E0C4
:10196000611D749F070E70E0711D670F7181519F9B
:10197000050E50E0511D749F070E70E0711D570F4A
:101980007281319F030E30E0311D749F070E70E0AD
:10199000711D370F11242F3FD1F02223A9F02F5FA3
:1019A000662321F0629F060E60E0611D552321F041
:1019B000529F050E50E0511D332321F0329F030E3C
:1019C00030E0311D112403C030E050E060E0FC0144
:1019D0006083518332831F91089520E030E0FC0141
:1019E0004591559165917491F901ED53FE4F6083D6
:1019F0005183428304962D5F3F4F2033310579F7A1
:101A000083EC91E008953FB7F8948091880190911C
:101A10008901A0918A01B0918B0126B5A89B05C0D0
:101A20002F3F19F00196A11DB11D3FBFBA2FA92F5D
:101A3000982F8827820F911DA11DB11DBC01CD01DA
:101A400042E0660F771F881F991F4A95D1F70895C6
:101A50003F924F925F926F927F928F929F92AF923E
:101A6000BF92CF92DF92EF92FF920F931F93CF938B
:101A7000DF9300D01F92CDB7DEB7F0903B0280918C
:101A80003E0290913F02A0914002B0914102892B09
:101A90008A2B8B2BE9F00E94030D009137021091E5
:101AA00038022091390230913A02DC01CB01801BCF
:101AB000910BA20BB30B00913E0210913F022091BB
:101AC00040023091410280179107A207B307B8F294
:101AD0000E94030D6093370270933802809339029D
:101AE00090933A02E0914602F0914702309759F004
:101AF000409142025091430260914402709145022C
:101B00008F2D0995F82E00913502109136024F2C39
:101B1000512C612C712C0115110509F461C0D801FB
:101B20001C96EC901C9780913C0290913D0284366B
:101B3000910510F41C961C92D801ED91FC91A280A5
:101B4000B38019821A821B82F11014C0F8014585F6
:101B50005685628173819E012F5F3F4FC801F50159
:101B60000995D8011C96EC921C9714960D911C9126
:101B70001597D1CFF8013996CE0101966C01480135
:101B80009CE0890E911CDF0113973C90219133203A
:101B900001F12223F1F0822F90E0A0E0B0E09C015F
:101BA000AD012F5F3F4F4F4F5F4FC301B2010E9406
:101BB0003E139B01AC01832D90E0A0E0B0E0BC019E
:101BC000CD016F5F7F4F8F4F9F4F0E943E13D60115
:101BD0008C93BFEFCB1ADB0AE815F905A1F6B6CF57
:101BE00080913302909134028C010F5F1F4F10934C
:101BF00034020093330249979CF10E947A0E4B0104
:101C00005C0188EE93E0089FB001099F700D189F5A
:101C1000700D1124072E000C880B990BC0902F0219
:101C2000D0903002E0903102F0903202A501940190
:101C30002C193D094E095F090E94621330933D0241
:101C400020933C0210923402109233020E947A0ECA
:101C500060932F027093300280933102909332028E
:101C60000F900F900F90DF91CF911F910F91FF90E8
:101C7000EF90DF90CF90BF90AF909F908F907F902C
:101C80006F905F904F903F9008958F929F92AF9288
:101C9000BF92CF92DF92EF92FF920E947A0E6B0179
:101CA0007C010E94030D4B015C010E94030DDC01CD
:101CB000CB0188199909AA09BB09883E9340A1055F
:101CC000B10598F30E94280D0E947A0EDC01CB0129
:101CD0008C199D09AE09BF09883C9105A105B10584
:101CE00000F3FF90EF90DF90CF90BF90AF909F9068
:101CF0008F9008952FB7F89460914802709149022F
:101D000080914A0290914B022FBF08951F920F922B
:101D10000FB60F9211242F933F938F939F93AF93FE
:101D2000BF938091480290914902A0914A02B091DC
:101D30004B0230914D0223E0230F2D3720F4019602
:101D4000A11DB11D05C026E8230F0296A11DB11DDE
:101D500020934D028093480290934902A0934A0237
:101D6000B0934B028091880190918901A0918A01E2
:101D7000B0918B010196A11DB11D809388019093B4
:101D80008901A0938A01B0938B01BF91AF919F917C
:101D90008F913F912F910F900FBE0F901F9018952C
:101DA000DC01FB014C9111965C91119712967C918C
:101DB000342F3F71330F330F832F880F35E5282FD2
:101DC000239F020E20E0211D1124642F6074942FA4
:101DD000907247FD21C061110BC0911104C0822F88
:101DE0008095422F11C045E5420F30E02BEA33C009
:101DF00091110DC0382F4AEA349F030E30E0311D97
:101E000011248BEA831B420F282F30E024C080E08E
:101E1000422F4095322F0EC0611111C091110CC09C
:101E2000382F2AEA329F030E30E0311D11244BEA8D
:101E3000431B3B5A20E00FC0322F30950BC091114D
:101E400004C085E5820F3BEA03C08AEA820F90E076
:101E5000321B282F40E05F3F11F15523E9F0222388
:101E600021F0259F020E20E0211D442321F0459FF3
:101E7000040E40E0411D332321F0359F030E30E076
:101E8000311D11245095559F050E50E0511D112410
:101E9000250F450F350F03C03FEF4FEF2FEF7F3F6B
:101EA00009F420C050E0772321F0779F512D09F0ED
:101EB0005F5F5523A1F0222321F0259F020E20E031
:101EC000211D442321F0459F040E40E0411D332392
:101ED00021F0359F030E30E0311D112403C030E0A6
:101EE00040E020E02083418332830895CF93DF9345
:101EF00000D01F92CDB7DEB78FEF89838A838B83A3
:101F0000409101015091020125E038E0429FC0015B
:101F1000439F900D529F900D1124875E994C909392
:101F2000020180930101A0E0B0E02CE0B695A795F6
:101F3000979587952A95D1F701969C01220F331F1B
:101F4000820F931FBE016F5F7F4F80579E4F0E948D
:101F50007F080F900F900F90DF91CF910895EF922F
:101F6000FF920F931F93CF93DF93EC0190914C025C
:101F70009F5F292F277020934C0290FF02C090E8AA
:101F800001C090E021FD9064247009F0906220E18E
:101F9000290FFE013C967E018FE0E80EF11C00E067
:101FA00011E06191662331F070E0C8010E944E1388
:101FB0006F5F01C060E0DF0114976C93322F369F92
:101FC000030E30E0311D1124CF010797311103C0FA
:101FD000EC01188203C03150EC013883662311F004
:101FE00061506C93EE15FF05E1F6DF91CF911F91E3
:101FF0000F91FF90EF900895EBE3F2E08FEF808375
:1020000012821182148613868FEF9FEFDC01878383
:102010009087A187B28762E572E083EC91E00C942F
:102020000A08CF93DF9300D01F92CDB7DEB7789424
:1020300084B5826084BD84B5816084BD85B58260CD
:1020400085BD85B5816085BD80916E00816080937E
:102050006E001092810080918100826080938100E7
:1020600080918100816080938100809180008160F7
:10207000809380008091B10084608093B100809152
:10208000B00081608093B00080917A00846080937A
:102090007A0080917A00826080937A0080917A0041
:1020A000816080937A0080917A00806880937A00C2
:1020B0001092C10080E090E00E94D5158336B1F403
:1020C00081E090E00E94D5158093260282E090E0A6
:1020D0000E94D51591E0811101C090E09093030119
:1020E00083E090E00E94D515809300018091260244
:1020F000823110F01092260280910602811145C0B3
:102100001092F8011092F7018FEF8093FB018093FA
:10211000FC018093FD018093FE018093FF01809379
:10212000000281E0809301021092030210920202E9
:102130001092FA011092F9018091350290913602C5
:10214000892B31F485EF91E090933602809335022C
:10215000E091F301F091F401309721F085EF91E0E7
:102160009583848385EF91E09093F4018093F3014C
:1021700010920502109204028FE391E09093F60111
:102180008093F50181E080930602E091F501F091E2
:10219000F6010480F581E02D85EF91E0099583E952
:1021A00091E09093F8018093F70180E190E09093A3
:1021B000030280930202E091F501F091F60102849E
:1021C000F385E02D85EF91E00995009729F19C01B9
:1021D00040E050E060E472E48FE090E00E948413FD
:1021E000722F632F00913E0210913F022091400216
:1021F00030914102872F962FDA0180179107A207AD
:10220000B30710F4D901C80180933E0290933F02B6
:10221000A0934002B09341022091000130E4239F3B
:10222000020E20E0211D112420933B0284E00E9435
:10223000FC0B83E00E94FC0B62E0862E99249394B1
:1022400086E192E072E0A72EA80EBB24B39444E08E
:10225000342E53E0252E0E947A0E2B013C01609310
:102260002B0270932C0280932D0290932E022EE06D
:10227000C22E22E0D22E3DE4E32E31E0F32E06E121
:1022800012E0F80180818130B1F030F0823061F1EC
:10229000853009F447C04EC0F70180810E94240CAC
:1022A000892B09F047C0F601408251826282738215
:1022B000F80190823FC0F60180819181A281B381B3
:1022C000A3019201281B390B4A0B5B0B2531310509
:1022D0004105510578F1F70180810E94240C892B7A
:1022E00049F5F801808226C0F70180810E94240C04
:1022F000019719F4F80120821DC0F60180819181B7
:10230000A281B381A3019201281B390B4A0B5B0BFD
:10231000DA01C901893E9340A105B10558F0F801E1
:10232000308208C0F70180810E94240C019711F4CB
:10233000F80110820F5F1F4FF4E0CF0ED11C2FEF7A
:10234000E21AF20AA0129DCF80911602833091F416
:10235000109216024092270250922802609229029F
:1023600070922A02809126028F5F823140F580931D
:10237000260227C0843009F06AC085E080931602E7
:1023800080910301892580930301882329F1198213
:1023900014E61A831B82CE0101960E94F9070E945F
:1023A000280D0E94450E19821A821B82CE010196C9
:1023B0000E94F9070E94450E19821A8324C01092C8
:1023C000260210928F0140921802509219026092D8
:1023D0001A0270921B0239C01BE819831A821B82F1
:1023E000CE0101960E94F9070E94280D0E94450E19
:1023F00019821A821B82CE0101960E94F9070E945F
:10240000450E19831A821B82CE0101960E94F9079C
:102410000E94280D0E94450E19821A821B82CE014D
:1024200001960E94F9070E94450E80912B0290911F
:102430002C02A0912D02B0912E028093180290934D
:102440001902A0931A02B0931B02B0921C022091B1
:10245000170280912B0290912C02A0912D02B09135
:102460002E02233031F410921702209100012D5CCE
:1024700006C02430C1F425E02093170220E8209301
:10248000000130E4239F020E20E0211D112420933F
:102490003B028093180290931902A0931A02B09302
:1024A0001B02B0921C0220911C02222331F14091A8
:1024B00018025091190260911A0270911B02841B3C
:1024C000950BA60BB70B813D9740A105B105A8F070
:1024D00063E680E00E94DB076091260281E00E94B3
:1024E000DB076091030182E00E94DB07609100013D
:1024F00083E00E94DB0710921C0280912B029091D6
:102500002C02A0912D02B0912E02409127025091F1
:1025100028026091290270912A028C019D01041BFE
:10252000150B260B370BB901A80149395A43610530
:102530007105C0F0209103012223A1F080932702AE
:1025400090932802A0932902B0932A022091260298
:102550002F5F223118F42093260202C01092260227
:1025600010928F0140912202509123026091240227
:10257000709125028C019D01041B150B260B370B56
:102580000F3111052105310578F0809322029093D7
:102590002302A0932402B093250210921D022091E1
:1025A0008C012F5F20938C0140911E0250911F02DD
:1025B00060912002709121028C019D01041B150B7A
:1025C000260B370B40918D0150918E0160E070E039
:1025D0004017510762077307E0F480931E0290933F
:1025E0001F02A0932002B0932102E0912602F0E0A6
:1025F000EE0FFF1FE15BFE4F0190F081E02D09958A
:1026000080910101909102010196909302018093C3
:102610000101E0912602F0E0EE0FFF1FE15BFE4FAB
:10262000808191818D5F944051F00E94280D80E05F
:1026300090E0892B09F40FCE0E94000008CEE5E956
:10264000F1E03EEFDF0112972C91239F020E20E074
:10265000211D2C93DF012E91239F020E20E0211DCE
:102660002C932081239F020E20E0211D2083112422
:10267000339621E0E53CF20729F7D7CFDB018F93B2
:102680009F930E94BF13BF91AF91A29F800D911D98
:10269000A39F900DB29F900D1124089597FB072ED4
:1026A00016F4009407D077FD09D00E94CA1307FCE6
:1026B00005D03EF4909581959F4F08957095619552
:1026C0007F4F0895A1E21A2EAA1BBB1BFD010DC06E
:1026D000AA1FBB1FEE1FFF1FA217B307E407F507D2
:1026E00020F0A21BB30BE40BF50B661F771F881FAE
:1026F000991F1A9469F760957095809590959B0144
:10270000AC01BD01CF010895052E97FB1EF4009486
:102710000E949B1357FD07D00E94621307FC03D051
:102720004EF40C949B1350954095309521953F4F56
:102730004F4F5F4F089590958095709561957F4FAD
:102740008F4F9F4F0895EE0FFF1F0590F491E02DDE
:102750000994A29FB001B39FC001A39F700D811D7A
:102760001124911DB29F700D811D1124911D08959A
:102770000E94A913B7FF0895821B930B08950E942E
:10278000A913A59F900DB49F900DA49F800D911D3E
:1027900011240895AA1BBB1B51E107C0AA1FBB1F30
:1027A000A617B70710F0A61BB70B881F991F5A95DD
:1027B000A9F780959095BC01CD0108955058BB278D
:1027C000AA270E94F6130C94CE140E94C01438F06D
:1027D0000E94C71420F039F49F3F19F426F40C949A
:1027E000BD140EF4E095E7FB0C94B714E92F0E949A
:1027F000DF1458F3BA17620773078407950720F0B0
:1028000079F4A6F50C9401150EF4E0950B2EBA2F71
:10281000A02D0B01B90190010C01CA01A0011124E6
:10282000FF27591B99F0593F50F4503E68F11A1692
:10283000F040A22F232F342F4427585FF3CF469523
:1028400037952795A795F0405395C9F77EF41F1645
:10285000BA0B620B730B840BBAF09150A1F0FF0F0F
:10286000BB1F661F771F881FC2F70EC0BA0F621FFB
:10287000731F841F48F4879577956795B795F795EB
:102880009E3F08F0B0CF9395880F08F09927EE0F80
:102890009795879508950E94E71488F09F5798F0C0
:1028A000B92F9927B751B0F0E1F0660F771F881F55
:1028B000991F1AF0BA95C9F714C0B13091F00E946F
:1028C0000115B1E008950C940115672F782F882722
:1028D000B85F39F0B93FCCF3869577956795B39596
:1028E000D9F73EF490958095709561957F4F8F4F05
:1028F0009F4F0895E89409C097FB3EF4909580950A
:10290000709561957F4F8F4F9F4F9923A9F0F92FB5
:1029100096E9BB279395F695879577956795B79533
:10292000F111F8CFFAF4BB0F11F460FF1BC06F5F19
:102930007F4F8F4F9F4F16C0882311F096E911C02B
:10294000772321F09EE8872F762F05C0662371F04C
:1029500096E8862F70E060E02AF09A95660F771F60
:10296000881FDAF7880F9695879597F9089597F954
:102970009F6780E870E060E008959FEF80EC089525
:1029800000240A941616170618060906089500244E
:102990000A9412161306140605060895092E0394C8
:1029A000000C11F4882352F0BB0F40F4BF2B11F43C
:1029B00060FF04C06F5F7F4F8F4F9F4F089557FD9B
:1029C0009058440F551F59F05F3F71F04795880F9D
:1029D00097FB991F61F09F3F79F087950895121634
:1029E00013061406551FF2CF4695F1DF08C01616E0
:1029F00017061806991FF1CF869571056105089491
:102A00000895E894BB2766277727CB0197F90895A7
:102A10000E941B150C94CE140E94C01438F00E9422
:102A2000C71420F0952311F00C94B7140C94BD1426
:102A300011240C9402150E94DF1470F3959FC1F3CA
:102A4000950F50E0551F629FF001729FBB27F00D5C
:102A5000B11D639FAA27F00DB11DAA1F649F6627B1
:102A6000B00DA11D661F829F2227B00DA11D621F00
:102A7000739FB00DA11D621F839FA00D611D221FBA
:102A8000749F3327A00D611D231F849F600D211D9E
:102A9000822F762F6A2F11249F5750409AF0F1F021
:102AA00088234AF0EE0FFF1FBB1F661F771F881F8A
:102AB00091505040A9F79E3F510580F00C94B714F7
:102AC0000C9402155F3FE4F3983ED4F38695779516
:102AD0006795B795F795E7959F5FC1F7FE2B880F30
:102AE000911D9695879597F9089519F416F40C940D
:102AF000BD140C94BB150E94E714B8F39923C9F3D5
:102B0000B6F39F57550B87FF0E94C9150024A0E616
:102B100040EA900180585695979528F4805C660F9E
:102B2000771F881F20F026173707480730F4621BED
:102B3000730B840B202931294A2BA69517940794EF
:102B4000202531254A2758F7660F771F881F20F068
:102B500026173707480730F4620B730B840B200DE0
:102B6000311D411DA09581F7B901842F9158880F1F
:102B70009695879508959F3F31F0915020F4879561
:102B800077956795B795880F911D9695879597F9D5
:102B9000089591505040660F771F881FD2F708950F
:102BA00081E090E0F8940C94EB15F999FECF92BD7A
:102BB00081BDF89A992780B50895262FF999FECFFF
:102BC0001FBA92BD81BD20BD0FB6F894FA9AF99A4A
:0A2BD0000FBE01960895F894FFCFA0
:102BDA008039050100003100F9183000FB302C0063
:102BEA001C472600825A1F006D6A170041760E00A4
:102BFA00897D04003131295A1B750A000000006DD5
:102C0A000C6D0C6D0C0002FC01F90100000000754E
:102C1A000BB80B20090002FC011D0922090304D587
:102C2A00047007DC0897082308790799049B015761
:102C3A0002FC061F060A04C9037C0574017B03FD16
:042C4A000436030049
:00000001FF
